:100000000C945D000C9485000C9485000C94850084
:100010000C9485000C9485000C9485000C9485004C
:100020000C9485000C9485000C9485000C94980425
:100030000C9485000C9485000C9485000C9485002C
:100040000C944E040C9485000C941C040C94F60340
:100050000C9485000C9485000C9485000C9485000C
:100060000C9485000C94850000000008000201003B
:100070000003040700000000000000000000000072
:10008000250028002B0000000000240027002A0083
:10009000040404040404040402020202020203032E
:1000A0000303030301020408102040800102040836
:1000B0001020010204081020F00511241FBECFEF0C
:1000C000D8E0DEBFCDBF11E0A0E0B1E0EEE0FDE0A2
:1000D00002C005900D92AC32B107D9F721E0ACE235
:1000E000B1E001C01D92AB3FB207E1F710E0CDE5F2
:1000F000D0E004C02197FE010E947F06CC35D107D5
:10010000C9F70E94FC040C9485060C94000090E052
:10011000FC01EC55FF4F249180579F4FFC018491C7
:10012000882399F090E0880F991FFC01EA57FF4F50
:10013000A591B491FC01E458FF4F859194918FB73C
:10014000F894EC91E22BEC938FBF0895AF92BF929D
:10015000CF92DF92EF92FF920F931F93CF93DF9393
:100160006C017B018B01040F151FEB015E01AE18C2
:10017000BF08C017D10759F06991D601ED91FC91E4
:100180000190F081E02DC6010995892B79F7C50111
:10019000DF91CF911F910F91FF90EF90DF90CF9063
:1001A000BF90AF900895FC01538D448D252F30E012
:1001B000842F90E0821B930B541710F0CF96089574
:1001C00001970895FC01918D828D981761F0A28DA1
:1001D000AE0FBF2FB11D5D968C91928D9F5F9F7367
:1001E000928F90E008958FEF9FEF0895FC01918D1D
:1001F000828D981731F0828DE80FF11D858D90E08A
:1002000008958FEF9FEF08952FB7F89480915A01CA
:1002100090915B01A0915C01B0915D012FBF809333
:10022000660190936701A0936801B09369018EE520
:1002300091E00E94F60097FF26C02FB7F8948091B6
:100240005A0190915B01A0915C01B0915D012FBFBB
:100250004091660150916701609168017091690158
:10026000841B950BA60BB70B409162015091630163
:10027000609164017091650184179507A607B7071F
:10028000B0F28FEF9FEF0895CF92DF92EF92FF923F
:10029000CF930E940401FC0197FD4EC08D32910561
:1002A00021F0C0970A9708F040C0C12CD12C7601EC
:1002B000C0E0E130F105D1F0ED32F105D9F1CF0127
:1002C000C0970A9798F4AAE0B0E0A70196010E94AF
:1002D0003C066F01FF0FEE08FF08C60ED71EE81E92
:1002E000F91E80E3C81AD108E108F1088EE591E013
:1002F0000E94E2000E940401FC01C0970A97C8F224
:10030000E130F105B1F2CC2341F0F094E094D094C7
:10031000C094C11CD11CE11CF11CC701B601CF91D6
:10032000FF90EF90DF90CF9008958EE591E00E94CE
:10033000E200AFCFC1E0DACFC12CD12C7601EDCFF6
:10034000FC01918D228D892F90E0805C9F4F821B54
:1003500091098F73992708958EE591E00E94A0017D
:1003600021E0892B09F420E0822F089580E090E0BD
:10037000892B29F00E94AC0181110C940000089592
:10038000FC01A48DA80FB92FB11DA35ABF4F2C910A
:10039000848D90E001968F739927848FA689B78901
:1003A0002C93A089B1898C91837080648C93938DF8
:1003B000848D981306C00288F389E02D80818F7D9B
:1003C00080830895EF92FF920F931F93CF93DF9353
:1003D000EC0181E0888F9B8D8C8D98131AC0E88981
:1003E000F989808185FF15C09FB7F894EE89FF8950
:1003F0006083E889F98980818370806480839FBFEE
:1004000081E090E0DF91CF911F910F91FF90EF90ED
:100410000895F62E0B8D10E00F5F1F4F0F731127FD
:10042000E02E8C8D8E110CC00FB607FCFACFE88938
:10043000F989808185FFF5CFCE010E94C001F1CFFF
:10044000EB8DEC0FFD2FF11DE35AFF4FF0829FB7AC
:10045000F8940B8FEA89FB8980818062CFCFCF939C
:10046000DF93EC01888D8823B9F0AA89BB89E889DC
:10047000F9898C9185FD03C0808186FD0DC00FB682
:1004800007FCF7CF8C9185FFF2CF808185FFEDCF00
:10049000CE010E94C001E9CFDF91CF91089590E095
:1004A000FC01E859FF4F2491FC01EC55FF4F3491BA
:1004B000FC01E057FF4FE491EE23C9F0222339F00D
:1004C000233001F1A8F4213019F1223029F1F0E0B4
:1004D000EE0FFF1FE458FF4FA591B4918FB7F8942A
:1004E000EC91611126C030953E233C938FBF089557
:1004F0002730A9F02830C9F0243049F780918000D6
:100500008F7D03C0809180008F7780938000DFCF44
:1005100084B58F7784BDDBCF84B58F7DFBCF809191
:10052000B0008F778093B000D2CF8091B0008F7DE4
:10053000F9CF3E2BDACF3FB7F894809152019091DA
:100540005301A0915401B091550126B5A89B05C057
:100550002F3F19F00196A11DB11D3FBFBA2FA92F42
:10056000982F8827BC01CD01620F711D811D911D3F
:1005700042E0660F771F881F991F4A95D1F70895AB
:100580008F929F92AF92BF92CF92DF92EF92FF92A3
:100590004B015C010E949B026B017C010E949B024B
:1005A0006C197D098E099F09683E7340810591058C
:1005B000A8F321E0821A9108A108B10888EEC80EBC
:1005C00083E0D81EE11CF11C81149104A104B10444
:1005D00029F7FF90EF90DF90CF90BF90AF909F9062
:1005E0008F9008950F931F93CF93C82F8B0161E0D5
:1005F0000E944F0224EB30E0D8010E9478062EE1E1
:1006000030E040E050E00E941D06A8EEB3E00E94FA
:100610003C0624EB30E040E050E00E941D062851EB
:100620003C4F4F4F5F4F220F331F220F331F255078
:100630003109C9010197F1F760E08C2F0E944F0248
:100640006AE070E080E090E0CF911F910F910C94F0
:10065000C0020F931F93CF93C82F8B0161E00E94BC
:100660004F022AE530E0D8010E94780624E130E00C
:1006700040E050E00E941D06D90128EE33E00E94C0
:10068000780624EB30E040E050E00E941D0628513F
:100690003C4F4F4F5F4F2230310548F0220F331F40
:1006A000220F331F25503109C9010197F1F760E08E
:1006B0008C2F0E944F026AE070E080E090E0CF91C2
:1006C0001F910F910C94C002FC0101900020E9F7EA
:1006D0003197AF01481B590BBC018EE591E00C949A
:1006E000A6008F929F92AF92BF92CF92DF92EF922D
:1006F000FF920F931F93CF93DF93CDB7DEB7A197F0
:100700000FB6F894DEBF0FBECDBF6C01990FEE0897
:10071000FF08F7FE47C06DE28EE591E00E94E2011E
:100720008C0122273327A9012C193D094E095F09A5
:1007300019A2CE0181967C019AE0892E912CA12CE0
:10074000B12CCA01B901A50194010E944706605D60
:10075000F70162937F01211531054105510589F7A4
:1007600090E080E0309719F0CF010E946403080FF9
:10077000191F82E191E00E946403800F911FA196EE
:100780000FB6F894DEBF0FBECDBFDF91CF911F91A2
:100790000F91FF90EF90DF90CF90BF90AF909F9020
:1007A0008F900895A701960119A28E010F5D1F4F2A
:1007B0008AE0C82ED12CE12CF12CCA01B901A70185
:1007C00096010E944706605DF80162938F01211532
:1007D00031054105510589F7309729F0CF010E9475
:1007E00064038C01C6CF10E000E0C3CF1F920F92CC
:1007F0000FB60F9211242F933F934F935F936F93F4
:100800007F938F939F93AF93BF93EF93FF938EE567
:1008100091E00E94C001FF91EF91BF91AF919F9134
:100820008F917F916F915F914F913F912F910F9099
:100830000FBE0F901F9018951F920F920FB60F9238
:1008400011242F938F939F93EF93FF93E0916E0169
:10085000F0916F018081E0917401F091750182FD4A
:100860001BC09081809177018F5F8F7320917801F9
:10087000821741F0E0917701F0E0E25AFE4F958F48
:1008800080937701FF91EF919F918F912F910F901E
:100890000FBE0F901F9018958081F4CF1F920F927A
:1008A0000FB60F9211242F933F938F939F93AF9383
:1008B000BF9380915A0190915B01A0915C01B0912E
:1008C0005D013091510123E0230F2D3758F501963A
:1008D000A11DB11D2093510180935A0190935B019A
:1008E000A0935C01B0935D018091520190915301FE
:1008F000A0915401B09155010196A11DB11D8093A5
:10090000520190935301A0935401B0935501BF91AC
:10091000AF919F918F913F912F910F900FBE0F90AC
:100920001F90189526E8230F0296A11DB11DD2CF66
:100930001F920F920FB60F9211242F933F938F9314
:100940009F93EF93FF938091500187FF1FC01092F8
:10095000850010928400809150018F5F8093500138
:100960008091500187FF04C0809150018C30ACF021
:100970008091840090918500049680349C4990F188
:10098000809184009091850004962EC08091500142
:1009900087FFE1CF80915001DECF2091840030911C
:1009A0008500E09150018E2FEE0F990BFC01EE0FA8
:1009B000FF1FE80FF91FE45DFE4F81819281820FD6
:1009C000931F909389008093880080915001FF913C
:1009D000EF919F918F913F912F910F900FBE0F90AC
:1009E0001F90189580E49CE990938900809388007B
:1009F0008FEF80935001EBCF789484B5826084BDF3
:100A000084B5816084BD85B5826085BD85B5816012
:100A100085BD80916E00816080936E001092810090
:100A2000809181008260809381008091810081604B
:100A3000809381008091800081608093800080910C
:100A4000B10084608093B1008091B0008160809398
:100A5000B00080917A00846080937A0080917A005F
:100A6000826080937A0080917A00816080937A001E
:100A700080917A00806880937A001092C10089E0AA
:100A80000E9487008BE00E948700E0916E01F09148
:100A90006F0182E08083E0916A01F0916B01108226
:100AA000E0916C01F0916D018FEC808310927601E2
:100AB000E0917201F091730186E08083E091700112
:100AC000F0917101808180618083E0917001F091EB
:100AD0007101808188608083E0917001F0917101E3
:100AE000808180688083E0917001F0917101808144
:100AF0008F7D808300E010E08EE591E00E94A001F0
:100B0000181619064CF58EE591E00E94E200C82FF8
:100B1000682F8EE591E00E94E201C13439F50E9410
:100B200044017093590160935801CB010E947103F5
:100B3000609158017091590189E090E00E94290369
:100B40006FE070E08BE090E00E94F20268EE73E0EC
:100B500080E090E00E94C0020115110569F20E9438
:100B6000AC01882349F20E940000C6CFC234A1F72D
:100B700070E060E089E090E00E9429030E94440157
:100B80007093570160935601CB010E9471038091CD
:100B90005601909157014F9774F085E191E00E94C2
:100BA000640382E191E00E9464036EE170E08BE0F7
:100BB00090E00E94F20280915601909157014E9769
:100BC0005CF680E291E00E94640382E191E00E9481
:100BD000640370E060E08BE090E00E94F202BCCF22
:100BE000EEE5F1E01382128288EE93E0A0E0B0E03F
:100BF00084839583A683B78384E091E09183808387
:100C000085EC90E09587848784EC90E097878687D1
:100C100080EC90E0918B808B81EC90E0938B828BC9
:100C200082EC90E0958B848B86EC90E0978B868BA2
:100C3000118E128E138E148E0895052E97FB1EF4BE
:100C400000940E94340657FD07D00E94470607FC17
:100C500003D04EF40C943406509540953095219570
:100C60003F4F4F4F5F4F08959095809570956195D8
:100C70007F4F8F4F9F4F08950E946906A59F900D4B
:100C8000B49F900DA49F800D911D11240895A1E2A1
:100C90001A2EAA1BBB1BFD010DC0AA1FBB1FEE1FF6
:100CA000FF1FA217B307E407F50720F0A21BB30B41
:100CB000E40BF50B661F771F881F991F1A9469F7BD
:100CC00060957095809590959B01AC01BD01CF0119
:100CD0000895A29FB001B39FC001A39F700D811D15
:100CE0001124911DB29F700D811D1124911D089535
:100CF0000E946906B7FF0895821B930B0895EE0FBB
:0E0D0000FF1F0590F491E02D0994F894FFCFA9
:100D0E0000000000E201A600D3002F02A001E200C5
:100D1E00F6000D0A0043616665206C6F6E676F000A
:0C0D2E004361666520637572746F0000FD
:00000001FF
