:100000000C945E000C9486000C9486000C94860080
:100010000C9486000C9486000C9486000C94860048
:100020000C9486000C9486000C9486000C94860038
:100030000C9486000C9486000C9486000C94860028
:100040000C94B9050C9486000C9487050C946105FA
:100050000C9486000C9486000C9486000C94860008
:100060000C9486000C948600000000080002010039
:100070000003040700000000000000000000000072
:10008000250028002B0000000000240027002A0083
:10009000040404040404040402020202020203032E
:1000A0000303030301020408102040800102040836
:1000B000102001020408102003062C0811241FBE82
:1000C000CFEFD8E0DEBFCDBF12E0A0E0B1E0EAE7BD
:1000D000F7E102C005900D92A436B107D9F723E0ED
:1000E000A4E6B2E001C01D92AD31B207E1F710E025
:1000F000CDE5D0E004C02197FE010E94A709CC35D0
:10010000D107C9F70E943B060C94B00B0C94000079
:100110000895AF92BF92CF92DF92EF92FF920F932A
:100120001F93CF93DF936C017B018B01040F151F8D
:10013000EB015E01AE18BF08C017D10759F06991F5
:10014000D601ED91FC910190F081E02DC601099559
:10015000892B79F7C501DF91CF911F910F91FF9006
:10016000EF90DF90CF90BF90AF900895FC01538D3A
:10017000448D252F30E0842F90E0821B930B541781
:1001800010F0CF96089501970895FC01918D828D0E
:10019000981761F0A28DAE0FBF2FB11D5D968C91A7
:1001A000928D9F5F9F73928F90E008958FEF9FEFE6
:1001B00008952FB7F89480916C0290916D02A091F0
:1001C0006E02B0916F022FBF8093780290937902F4
:1001D000A0937A02B0937B0280E792E00E94C50070
:1001E00097FF26C02FB7F89480916C0290916D0212
:1001F000A0916E02B0916F022FBF40917802509192
:10020000790260917A0270917B02841B950BA60B98
:10021000B70B409174025091750260917602709113
:10022000770284179507A607B707B0F28FEF9FEF05
:100230000895FC01918D828D981731F0828DE80F21
:10024000F11D858D90E008958FEF9FEF0895FC01DB
:10025000918D228D892F90E0805C9F4F821B9109A8
:100260008F739927089580E792E00E94270121E08B
:10027000892B09F420E0822F089580E090E0892BFB
:1002800029F00E94330181110C9400000895FC01B3
:10029000A48DA80FB92FB11DA35ABF4F2C91848DE7
:1002A00090E001968F739927848FA689B7892C9344
:1002B000A089B1898C91837080648C93938D848D97
:1002C000981306C00288F389E02D80818F7D80839A
:1002D0000895EF92FF920F931F93CF93DF93EC015A
:1002E00081E0888F9B8D8C8D98131AC0E889F989DD
:1002F000808185FF15C09FB7F894EE89FF896083E0
:10030000E889F98980818370806480839FBF81E060
:1003100090E0DF91CF911F910F91FF90EF900895A2
:10032000F62E0B8D10E00F5F1F4F0F731127E02E7D
:100330008C8D8E110CC00FB607FCFACFE889F989B5
:10034000808185FFF5CFCE010E944701F1CFEB8D73
:10035000EC0FFD2FF11DE35AFF4FF0829FB7F89489
:100360000B8FEA89FB8980818062CFCFCF93DF93A7
:10037000EC01888D8823B9F0AA89BB89E889F989BD
:100380008C9185FD03C0808186FD0DC00FB607FCF2
:10039000F7CF8C9185FFF2CF808185FFEDCFCE0125
:1003A0000E944701E9CFDF91CF91089590E0FC01D1
:1003B000E859FF4F2491FC01EC55FF4F3491FC01AB
:1003C000E057FF4FE491EE23C9F0222339F02330A8
:1003D00001F1A8F4213019F1223029F1F0E0EE0FFB
:1003E000FF1FE458FF4FA591B4918FB7F894EC919B
:1003F000611126C030953E233C938FBF089527306E
:10040000A9F02830C9F0243049F7809180008F7D11
:1004100003C0809180008F7780938000DFCF84B508
:100420008F7784BDDBCF84B58F7DFBCF8091B0000B
:100430008F778093B000D2CF8091B0008F7DF9CFBD
:100440003E2BDACF3FB7F894809167029091680213
:10045000A0916902B0916A0226B5A89B05C02F3F02
:1004600019F00196A11DB11D3FBFBA2FA92F982FDA
:100470008827BC01CD01620F711D811D911D42E0D5
:10048000660F771F881F991F4A95D1F708958F929D
:100490009F92AF92BF92CF92DF92EF92FF926B0149
:1004A0007C010E9422024B015C01C114D104E104D1
:1004B000F104B9F00E942202681979098A099B099E
:1004C000683E73408105910580F321E0C21AD1088E
:1004D000E108F10888EE880E83E0981EA11CB11C8B
:1004E000E4CFFF90EF90DF90CF90BF90AF909F90C0
:1004F0008F900895BF92CF92DF92EF92FF920F9369
:100500001F93CF93DF938B01D0E0C0E06C01990F74
:10051000EE08FF0897E0B92E61E08B2D0E94D6010E
:10052000B3948DE0B812F8CFC701B6010E9447021C
:1005300087E0B82E60E08B2D0E94D601B3948DE049
:10054000B812F8CFC701B6010E94470221960C17D6
:100550001D0701F7DF91CF911F910F91FF90EF9051
:10056000DF90CF90BF900895CF93DF93FC0101906F
:100570000020E9F73197AF01481B590BBC0180E718
:1005800092E00E948900EC0142E050E06CE171E0F1
:1005900080E792E00E9489008C0F9D1FDF91CF9130
:1005A0000895EF92FF920F931F93CF93DF930091E3
:1005B000130310911403FC01C081D181F8018191D2
:1005C0008F018823B9F0082E000C990B0E948F0B25
:1005D0007C018991082E000C990B0E948F0BE81664
:1005E000F90661F380E0DF91CF911F910F91FF90A9
:1005F000EF90089581E0F7CF209117033091180311
:10060000809111039091120328173907F1F480911A
:1006100013039091140360910D0370910E030097E2
:10062000D1F061157105A1F4232BC1F0FC0180818B
:1006300090E008C0232B91F0FB01808190E0919520
:100640008195910921E0892B09F020E0822F0895FE
:100650000E94A00BF7CF6115710561F721E0F6CF7D
:100660000F931F93CF93DF93EC01888199810097BB
:1006700059F02A813B812617370730F081E0DF915E
:10068000CF911F910F9108958B016F5F7F4F0E9453
:10069000D20A009759F0998388831B830A832C819F
:1006A0003D81232B59F7FC011082E8CF80E0E7CF92
:1006B000CF93DF93EC0188819981009711F00E941C
:1006C000490A198218821D821C821B821A82DF91BC
:1006D000CF910895EF92FF920F931F93CF93DF93E3
:1006E000EC017B018A01BA010E94300381110BC029
:1006F000CE010E945803CE01DF91CF911F910F913F
:10070000FF90EF9008951D830C83B7018881998134
:100710000E94A90BF0CFFC01118210821382128279
:1007200015821482FB0101900020E9F73197AF0197
:10073000461B570B0C946A03FC0180819181009742
:1007400011F00C94490A08950F931F93CF93DF93F0
:10075000CDB7DEB728970FB6F894DEBF0FBECDBF7A
:100760008FE191E00E94B40280E792E00E942701AD
:10077000892BD1F380E792E00E942701892B09F4AD
:100780004FC01A8219821C821B821E821D8250E079
:1007900040E06EE171E0CE0101960E946A030E9482
:1007A000D90097FD1BC08F8318860D811E810F5FB6
:1007B0001F4FB801CE0101960E943003882379F3C0
:1007C00029813A818D819E81BE01695F7F4F820FB1
:1007D000931F0E94A90B1E830D83E1CF8091130309
:1007E00090911403009749F169817A81611571052F
:1007F00011F140911503509116032D813E8142174E
:100800005307C8F00E94A90B8D819E819093180315
:10081000809317031E821D82CE0101960E949C03C5
:1008200028960FB6F894DEBF0FBECDBFDF91CF91F3
:100830001F910F9108950E94490A89819A8190938E
:100840001403809313038B819C81909316038093F0
:1008500015038D819E8190931803809317031A824C
:1008600019821C821B82D6CF2F923F924F925F92A9
:100870006F927F928F929F92AF92BF92CF92DF92B0
:10088000EF92FF920F931F93CF93DF93CDB7DEB715
:100890002E970FB6F894DEBF0FBECDBF2C012DB63C
:1008A0003EB6660F771F8DB79EB7861B970B0FB6A8
:1008B000F8949EBF0FBE8DBFEDB7FEB731967F0196
:1008C0008F01060F171F6F0196E0892E912CA12C26
:1008D000B12C0E948008A50194010E940D096F5F50
:1008E0007F4F8F4F9F4FF601619371936F01E01718
:1008F000F10779F750E040E06EE171E08DE093E0C0
:100900000E946A03052C000C66087708CE01019648
:100910005C01F701019111917F0110936502009331
:1009200064020130110509F07BC061E087E00E949C
:10093000D601C301B2010E94470260E087E00E9435
:10094000D601C301B2010E9447021A8619861C868D
:100950001B861E861D8660910D0370910E03611526
:10096000710541F04091110350911203CE01099697
:100970000E946A034AE0B501C8010E94D808F50147
:1009800001900020E9F73197EA19FB09B9F00D85CC
:100990001E850E0F1F1FB801CE0109960E9430035D
:1009A000882309F484C029853A858D859E85B50103
:1009B000820F931F0E94A90B1E870D8769857A8578
:1009C0006115710509F478C04D855E858DE093E071
:1009D0000E946A03CE0109960E949C03EC14FD0458
:1009E00009F097CF0FB6F8943EBE0FBE2DBE2E96DF
:1009F0000FB6F894DEBF0FBECDBFDF91CF911F9130
:100A00000F91FF90EF90DF90CF90BF90AF909F90AD
:100A10008F907F906F905F904F903F902F900895B0
:100A20000230110559F461E088E00E94D601C3014B
:100A3000B2010E94470260E088E081CF03301105D7
:100A400059F461E089E00E94D601C301B2010E941D
:100A5000470260E089E073CF0430110559F461E08A
:100A60008AE00E94D601C301B2010E94470260E001
:100A70008AE065CF0530110559F461E08BE00E94F2
:100A8000D601C301B2010E94470260E08BE057CF5C
:100A90000630110509F059CF61E08CE00E94D601C3
:100AA000C301B2010E94470260E08CE048CFCE0152
:100AB00009960E94580382CF8DE093E00E9458036C
:100AC00089CF1F920F920FB60F9211242F933F934D
:100AD0004F935F936F937F938F939F93AF93BF9346
:100AE000EF93FF9380E792E00E944701FF91EF911F
:100AF000BF91AF919F918F917F916F915F914F9136
:100B00003F912F910F900FBE0F901F9018951F923D
:100B10000F920FB60F9211242F938F939F93EF9301
:100B2000FF93E0918002F09181028081E091860242
:100B3000F091870282FD1BC09081809189028F5FB6
:100B40008F7320918A02821741F0E0918902F0E0D0
:100B5000E059FD4F958F80938902FF91EF919F910E
:100B60008F912F910F900FBE0F901F90189580813D
:100B7000F4CF1F920F920FB60F9211242F933F9331
:100B80008F939F93AF93BF9380916C0290916D026E
:100B9000A0916E02B0916F023091660223E0230FA4
:100BA0002D3758F50196A11DB11D20936602809343
:100BB0006C0290936D02A0936E02B0936F028091CD
:100BC000670290916802A0916902B0916A02019651
:100BD000A11DB11D8093670290936802A0936902E2
:100BE000B0936A02BF91AF919F918F913F912F91E6
:100BF0000F900FBE0F901F90189526E8230F0296B6
:100C0000A11DB11DD2CFE0E7F2E01382128288EE7F
:100C100093E0A0E0B0E084839583A683B7838EE061
:100C200091E09183808385EC90E09587848784ECC4
:100C300090E09787868780EC90E0918B808B81ECA9
:100C400090E0938B828B82EC90E0958B848B86EC8A
:100C500090E0978B868B118E128E138E148E6EE120
:100C600071E083E193E00E948B036EE171E08DE01F
:100C700093E00C948B03CF93DF9300D000D000D08F
:100C8000CDB7DEB7789484B5826084BD84B58160C9
:100C900084BD85B5826085BD85B5816085BD809147
:100CA0006E00816080936E001092810080918100BF
:100CB00082608093810080918100816080938100B7
:100CC000809180008160809380008091B100846079
:100CD0008093B1008091B00081608093B0008091DA
:100CE0007A00846080937A0080917A008260809399
:100CF0007A0080917A00816080937A0080917A00F6
:100D0000806880937A001092C100E0918002F09197
:100D1000810282E08083E0917C02F0917D0210826A
:100D2000E0917E02F0917F028FEC80831092880226
:100D3000E0918402F091850286E08083E091820256
:100D4000F0918302808180618083E0918202F09142
:100D50008302808188608083E0918202F091830227
:100D6000808180688083E0918202F091830280819B
:100D70008F7D808327E030E0F901EC55FF4F4491EF
:100D8000F901E057FF4F8491882399F090E0880F94
:100D9000991FFC01EA57FF4FA591B491FC01E4585B
:100DA000FF4F859194918FB7F894EC91E42BEC93DD
:100DB0008FBF2F5F3F4F2D303105F1F680E48093D8
:100DC0007C0080917A00806480937A0080917A0020
:100DD00086FDFCCF8091780060917900762F682F96
:100DE000072E000C880B990B611571058105910583
:100DF00011F00E94CF0850E0E52E50E0F52E18E0EB
:100E000007E0DD24D39469E0B62E86E0A82E95E0B5
:100E1000992E24E0822E33E0C32E42E0742EE0911E
:100E20006B02EA3008F046C00E2E000CFF0BE55EA8
:100E3000F84F0C94A70925076B078B079E07B1078E
:100E4000C507D907EF07FC07290887E391E00E944F
:100E5000B40282E491E00E94B4020E94A40361E51E
:100E600071E0CE0101960E948B038091170390914F
:100E700018032D813E81612C8217930749F4662463
:100E80006394892B29F0CE0101960E94D102682E2D
:100E9000CE0101960E949C036620C1F0D0926B02A5
:100EA00083E591E00E94B40263E070E088EE93E095
:100EB0000E947A02E114F10409F4B1CF0E943301D7
:100EC000882309F4A2CF0E9400009FCFC0926B023A
:100ED00086E691E019C089E791E00E94B40263E0E0
:100EE00070E088EE93E00E9434040E94A4030E9404
:100EF000FC02882329F070926B0285E891E0D2CF42
:100F000000936B0280EA91E00E94B40265E070E019
:100F10008CE291E0CDCF8CEA91E00E94B40265E0D2
:100F200070E088EE93E00E9434040E94A4030E94C3
:100F3000FC02882329F3C0926B02DFCF88EB91E09B
:100F40000E94B40266E070E080E293E00E94340404
:100F50000E94A4030E94FC02882391F280926B02FB
:100F6000CCCF84EC91E00E94B40267E070E080E2B4
:100F700093E00E9434040E94A4030E94FC02882390
:100F800009F4BECF90926B02B8CF80ED91E00E9441
:100F9000B40267E070E088E592E00E9434040E94A9
:100FA000A4030E94FC02882309F4AACFA0926B023A
:100FB000A4CF8CED91E00E94B40268E070E084EF71
:100FC00091E00E9434040E94A4030E94FC02882342
:100FD00009F496CFB0926B0288EE91E063CF85EF73
:100FE00091E00E94B40265E070E084E690E00E9427
:100FF0007A0210936B025ECF8FEF91E00E94B402F1
:101000000E94A40361E571E0CE0101960E948B036A
:1010100080911703909118032D813E81612C8217D6
:10102000930749F466246394892B29F0CE01019635
:101030000E94D102682ECE0101960E949C03662078
:1010400029F0D0926B0286E192E02CCF00936B02E4
:101050003FCF88E292E0C5CF8DE093E00E949C03F1
:1010600083E193E00C949C038F929F92AF92BF9286
:10107000CF92DF92EF92FF92CF93DF93EC016881E2
:1010800079818A819B81611571058105910521F422
:1010900064E279ED8BE597E02DE133EF41E050E03C
:1010A0000E940D0949015A019B01AC01A7EAB1E474
:1010B0000E942C096B017C01ACEEB4EFA5019401F8
:1010C0000E943A09C60ED71EE81EF91EF7FE06C09A
:1010D00081E0C81AD108E10880E8F80AC882D982FC
:1010E000EA82FB82C701B6019F77DF91CF91FF9023
:1010F000EF90DF90CF90BF90AF909F908F9008952A
:101100008F929F92AF92BF92CF92DF92EF92FF9217
:1011100060910001709101018091020190910301A1
:10112000611571058105910521F464E279ED8BE586
:1011300097E02DE133EF41E050E00E940D094901B5
:101140005A019B01AC01A7EAB1E40E942C096B0192
:101150007C01ACEEB4EFA50194010E943A09C60EE1
:10116000D71EE81EF91EF7FE06C081E0C81AD10896
:10117000E10880E8F80AC0920001D0920101E092F3
:101180000201F0920301C701B6019F77FF90EF9033
:10119000DF90CF90BF90AF909F908F900895609315
:1011A000000170930101809302019093030108955F
:1011B000BB274A3031F4992322F4BDE29095819502
:1011C0009F4F0C94E408BB27FB015527AA27880FE3
:1011D000991FAA1FA41710F0A41B83955051B9F7AB
:1011E000A05DAA3308F0A95DA193009779F7B1112A
:1011F000B1931192CB010C94FD08DC01FC01672F27
:1012000071917723E1F7329704C07C916D937083DD
:101210006291AE17BF07C8F30895052E97FB1EF421
:1012200000940E94240957FD07D00E94760907FC0C
:1012300003D04EF40C942409509540953095219597
:101240003F4F4F4F5F4F08959095809570956195F2
:101250007F4F8F4F9F4F08950E949809A59F900D33
:10126000B49F900DA49F800D911D11240895B7FF88
:101270000C942C090E942C09821B930B08952F9229
:101280003F924F925F926F927F928F929F92AF9216
:10129000BF92CF92DF92EF92FF920F931F93CF9363
:1012A000DF93CDB7DEB7CA1BDB0B0FB6F894DEBFFA
:1012B0000FBECDBF09942A88398848885F846E8420
:1012C0007D848C849B84AA84B984C884DF80EE806A
:1012D000FD800C811B81AA81B981CE0FD11D0FB673
:1012E000F894DEBF0FBECDBFED010895A1E21A2E26
:1012F000AA1BBB1BFD010DC0AA1FBB1FEE1FFF1FBA
:10130000A217B307E407F50720F0A21BB30BE40B09
:10131000F50B661F771F881F991F1A9469F7609550
:101320007095809590959B01AC01BD01CF0108950A
:10133000A29FB001B39FC001A39F700D811D112416
:10134000911DB29F700D811D1124911D0895EE0F06
:10135000FF1F0590F491E02D09940F931F93CF93F5
:10136000DF938230910510F482E090E0E0911B035E
:10137000F0911C0330E020E0B0E0A0E0309799F459
:101380002115310509F44AC0281B390B24303105D9
:10139000D8F58A819B816115710589F1FB019383E1
:1013A0008283FE0111C0408151810281138148175F
:1013B0005907E0F04817590799F4109761F0129611
:1013C0000C93129713961C933296CF01DF91CF9115
:1013D0001F910F91089500931B0310931C03F4CFEA
:1013E0002115310551F04217530738F0A901DB01EF
:1013F0009A01BD01DF01F801C1CFEF01F9CF909350
:101400001C0380931B03CDCFFE01E20FF31F8193DA
:1014100091932250310939832883D7CF2091190322
:1014200030911A03232B41F42091060130910701DA
:1014300030931A0320931903209104013091050180
:101440002115310541F42DB73EB740910801509167
:101450000901241B350BE0911903F0911A03E217DF
:10146000F307A0F42E1B3F0B2817390778F0AC01C7
:101470004E5F5F4F2417350748F04E0F5F1F5093A4
:101480001A0340931903819391939FCFF0E0E0E01A
:101490009CCFCF93DF930097E9F0FC013297138242
:1014A0001282A0911B03B0911C03ED0130E020E0FB
:1014B0001097A1F420813181820F931F209119038D
:1014C00030911A032817390709F061C0F0931A0305
:1014D000E0931903DF91CF910895EA01CE17DF075A
:1014E000E8F54A815B819E0141155105B1F7E9019B
:1014F000FB83EA8349915991C40FD51FEC17FD076F
:1015000061F4808191810296840F951FE90199838E
:101510008883828193819B838A83F0E0E0E0129646
:101520008D919C9113970097B9F52D913C9111974E
:10153000CD010296820F931F2091190330911A0357
:101540002817390739F6309751F510921C0310927D
:101550001B03B0931A03A0931903BCCFD383C28398
:1015600040815181840F951FC817D90761F44E5FE0
:101570005F4F88819981480F591F518340838A8129
:101580009B81938382832115310509F0B0CFF093BD
:101590001C03E0931B039ECFFD01DC01C0CF13822F
:1015A0001282D7CFB0E0A0E0E8EDFAE00C94410958
:1015B0008C01009751F4CB010E94AD098C01C80148
:1015C000CDB7DEB7E0E10C945D09FC01E60FF71F33
:1015D0009C0122503109E217F30708F49DC0D9019C
:1015E000CD91DC911197C617D70798F0C530D1057A
:1015F00030F3CE0104978617970708F3C61BD70B65
:101600002297C193D1936D937C93CF010E94490A95
:10161000D6CF5B01AC1ABD0A4C018C0E9D1EA09169
:101620001B03B0911C03512C412CF12CE12C109781
:1016300031F58091190390911A038815990509F0E5
:101640005CC04616570608F058C08091040190917E
:101650000501009741F48DB79EB740910801509164
:101660000901841B950BE817F90708F055C0F093A2
:101670001A03E0931903F90171836083A0CF8D9160
:101680009C91119712966C90129713967C901397D9
:10169000A815B90559F56C0142E0C40ED11CCA1455
:1016A000DB0420F1AC014A195B09DA0112961597A7
:1016B00080F06282738251834083D9016D937C9361
:1016C000E114F10471F0D7011396FC93EE93129795
:1016D00076CF22968C0F9D1FF90191838083F301B1
:1016E000EFCFF0931C03E0931B0369CF4816590614
:1016F00008F42C017D01D3019ACFCB010E94AD09E2
:101700007C01009749F0AE01B8010E94970BC80117
:101710000E94490A870153CF10E000E050CF911199
:10172000089581548A5108F4805E855A0895FB011A
:10173000DC0102C001900D9241505040D8F708954D
:10174000FB01DC018D91019080190110D9F3990BF7
:101750000895FB01DC0101900D920020E1F708954E
:1017600010E0CDE5D0E004C0FE010E94A70921965B
:0A177000CE35D107C9F7F894FFCF7A
:10177A000100000000001D03800000000000690154
:10178A008900B600B6012701C50019010D0A002A11
:10179A0020496E736572612073756120726573707A
:1017AA006F737461202A002A20494E4943494F2009
:1017BA002A00436F6D656361723F2028732F6E297B
:1017CA000073004A6F676F20636F6D65C3A7616E10
:1017DA00646F2E2E2E004A6F676F206EC3A36F2090
:1017EA00696E69636961646F002A204E6976656C67
:1017FA002031202A005061726162656E7321207067
:10180A00726F78696D6F206E6976656C2E2E2E0068
:10181A004572726F6F6F6F6F212121002A204E6906
:10182A0076656C2032202A002A204E6976656C2063
:10183A0033202A002A204E6976656C2034202A003B
:10184A002A204E6976656C2035202A002A204E69A6
:10185A0076656C2036202A005061726162C3A96ED7
:10186A00732121210047616D65204F766572004A18
:10187A006F676172206E6F76616D656E74653F2069
:10188A0028732F6E29004A6F676F20636F6D656337
:10189A00616E646F2E2E2E00566F63C3AA20636F8B
:1018AA006E73656775697520706173736172206400
:1018BA006520746F646F73206F73206EC3AD766595
:1018CA00697320652076656E636575206F206A6F7F
:0418DA00676F210013
:00000001FF
