:100000000C9462000C948A000C948A000C948A0070
:100010000C948A000C948A000C948A000C948A0038
:100020000C948A000C948A000C948A000C948A0028
:100030000C948A000C948A000C948A000C948A0018
:100040000C9465030C948A000C9433030C940D03F8
:100050000C948A000C948A000C948A000C948A00F8
:100060000C948A000C948A000000000023002600F3
:10007000290000000000240027002A0000000000E2
:10008000250028002B0004040404040404040202D4
:100090000202020203030303030301020408102007
:1000A0004080010204081020010204081020000012
:1000B0000008000201000003040700000000000027
:1000C0000000F40311241FBECFEFD8E0DEBFCDBF88
:1000D00011E0A0E0B1E0E6E6FAE002C005900D9282
:1000E000A631B107D9F721E0A6E1B1E001C01D9228
:1000F000A13CB207E1F710E0C2E6D0E004C02197CE
:10010000FE010E942B05C136D107C9F70E943D04AC
:100110000C9431050C940000AF92BF92CF92DF9205
:10012000EF92FF920F931F93CF93DF936C017B01AC
:100130008B01040F151FEB015E01AE18BF08C0173D
:10014000D10759F06991D601ED91FC910190F081B0
:10015000E02DC6010995892B79F7C501DF91CF9173
:100160001F910F91FF90EF90DF90CF90BF90AF90D5
:100170000895FC01538D448D252F30E0842F90E0AD
:10018000821B930B541710F0CF9608950197089592
:10019000FC01918D828D981761F0A28DAE0FBF2F5B
:1001A000B11D5D968C91928D9F5F9F73928F90E0B1
:1001B00008958FEF9FEF0895FC01918D828D981720
:1001C00031F0828DE80FF11D858D90E008958FEF5D
:1001D0009FEF0895FC01918D228D892F90E0805C26
:1001E0009F4F821B91098F739927089580E291E0B8
:1001F0000E94EA0021E0892B09F420E0822F089573
:1002000080E090E0892B29F00E94F60081110C9487
:1002100000000895FC01A48DA80FB92FB11DA35AA9
:10022000BF4F2C91848D90E001968F739927848F16
:10023000A689B7892C93A089B1898C918370806439
:100240008C93938D848D981306C00288F389E02DDA
:1002500080818F7D80830895EF92FF920F931F938B
:10026000CF93DF93EC0181E0888F9B8D8C8D981369
:100270001AC0E889F989808185FF15C09FB7F89475
:10028000EE89FF896083E889F989808183708064C1
:1002900080839FBF81E090E0DF91CF911F910F910C
:1002A000FF90EF900895F62E0B8D10E00F5F1F4F1B
:1002B0000F731127E02E8C8D8E110CC00FB607FC2A
:1002C000FACFE889F989808185FFF5CFCE010E94B8
:1002D0000A01F1CFEB8DEC0FFD2FF11DE35AFF4F1B
:1002E000F0829FB7F8940B8FEA89FB898081806246
:1002F000CFCFCF93DF93EC01888D8823B9F0AA8903
:10030000BB89E889F9898C9185FD03C0808186FDD0
:100310000DC00FB607FCF7CF8C9185FFF2CF80811F
:1003200085FFEDCFCE010E940A01E9CFDF91CF9189
:10033000089590E0FC01E255FF4F2491FC01E65640
:10034000FF4F3491FC01EA57FF4FE491EE23C9F0CF
:10035000222339F0233001F1A8F4213019F12230A1
:1003600029F1F0E0EE0FFF1FE458FF4FA591B49183
:100370008FB7F894EC91611126C030953E233C93E1
:100380008FBF08952730A9F02830C9F0243049F7ED
:10039000809180008F7D03C0809180008F77809353
:1003A0008000DFCF84B58F7784BDDBCF84B58F7DB0
:1003B000FBCF8091B0008F778093B000D2CF809137
:1003C000B0008F7DF9CF3E2BDACFCF93DF9390E053
:1003D000FC01E656FF4F24918A579F4FFC01849100
:1003E0008823C9F090E0880F991FFC01EE58FF4F59
:1003F000A591B491FC01E458FF4FC591D4916111CE
:100400000DC09FB7F8948C91209582238C9388819E
:10041000282328839FBFDF91CF910895623051F444
:100420009FB7F8943C91822F809583238C93E88129
:100430002E2BEFCF8FB7F894EC912E2B2C938FBFF0
:10044000EACF3FB7F89480911B0190911C01A091D5
:100450001D01B0911E0126B5A89B05C02F3F19F0C4
:100460000196A11DB11D3FBFBA2FA92F982F882734
:10047000BC01CD01620F711D811D911D42E0660F0F
:10048000771F881F991F4A95D1F708958F929F92E1
:10049000AF92BF92CF92DF92EF92FF924B015C013D
:1004A0000E9421026B017C010E9421026C197D09CE
:1004B0008E099F09683E734081059105A8F321E0EC
:1004C000821A9108A108B10888EEC80E83E0D81EF0
:1004D000E11CF11C81149104A104B10429F7FF90DF
:1004E000EF90DF90CF90BF90AF909F908F90089546
:1004F0008F929F92AF92BF920F931F93CF93DF93F0
:10050000CDB7DEB7A1970FB6F894DEBF0FBECDBF53
:1005100019A2423008F44AE08E010F5D1F4F842E6D
:10052000912CB12CA12CA50194010E940905E62F64
:10053000B901CA01EA3044F5E05DD801EE938D01BE
:10054000232B242B252B79F790E080E0109769F07E
:10055000FD0101900020E9F73197AF014A1B5B0BC9
:10056000BD0180E291E00E948C00A1960FB6F89444
:10057000DEBF0FBECDBFDF91CF911F910F91BF9016
:10058000AF909F908F900895E95CD7CF0F931F9302
:10059000CF93DF93EC0160E088810E94990183E0B2
:1005A00090E00197F1F761E088810E94990183E270
:1005B00090E00197F1F760E088810E9499018981BC
:1005C00090E0FC01E656FF4F6491FC01EA57FF4FB3
:1005D000E491F0E0EE0FFF1FE859FF4F85919491F1
:1005E00000E412E42FE030E0462F0E94AF036115D3
:1005F00071058105910529F06F5F7F4F8F4F9F4FE8
:100600009F702BE330E040E050E00E940905C901F3
:10061000DF91CF911F910F9108951F920F920FB606
:100620000F9211242F933F934F935F936F937F9378
:100630008F939F93AF93BF93EF93FF9380E291E0EB
:100640000E940A01FF91EF91BF91AF919F918F910D
:100650007F916F915F914F913F912F910F900FBEBE
:100660000F901F9018951F920F920FB60F921124A2
:100670002F938F939F93EF93FF93E0913001F0912D
:1006800031018081E0913601F091370182FD1BC07C
:100690009081809139018F5F8F7320913A01821789
:1006A00041F0E0913901F0E0E05EFE4F958F8093DC
:1006B0003901FF91EF919F918F912F910F900FBE74
:1006C0000F901F9018958081F4CF1F920F920FB654
:1006D0000F9211242F933F938F939F93AF93BF93C8
:1006E0008091170190911801A0911901B0911A0100
:1006F0003091160123E0230F2D3758F50196A11DE7
:10070000B11D209316018093170190931801A093B7
:100710001901B0931A0180911B0190911C01A091C5
:100720001D01B0911E010196A11DB11D80931B01F9
:1007300090931C01A0931D01B0931E01BF91AF9136
:100740009F918F913F912F910F900FBE0F901F900F
:10075000189526E8230F0296A11DB11DD2CFCF9286
:10076000DF92EF92FF920F931F93E82FF92F05C0AE
:10077000015011092109310961F1908196239417E3
:10078000B9F305C0015011092109310911F1908116
:1007900096239413F7CFC12CD12CE12CF12C0AC055
:1007A0008FEFC81AD80AE80AF80A0C151D052E059D
:1007B0003F0579F080818623841791F36C2D7D2D80
:1007C0008E2D9F2D1F910F91FF90EF90DF90CF9076
:1007D000089560E070E080E090E01F910F91FF903D
:1007E000EF90DF90CF900895E0E2F1E01382128263
:1007F00088EE93E0A0E0B0E084839583A683B7837E
:1008000084E091E09183808385EC90E095878487F4
:1008100084EC90E09787868780EC90E0918B808BCA
:1008200081EC90E0938B828B82EC90E0958B848BB3
:1008300086EC90E0978B868B118E128E138E148E21
:1008400061E084E00E94E50160E085E00E94E5014E
:10085000EFEBF1E084E0808385E0818361E08CE070
:100860000E94E50160E08BE00E94E501EDEBF1E024
:100870008CE080838BE081830895789484B58260D6
:1008800084BD84B5816084BD85B5826085BD85B534
:10089000816085BD80916E00816080936E001092B2
:1008A000810080918100826080938100809181002D
:1008B00081608093810080918000816080938000BE
:1008C0008091B10084608093B1008091B00081601C
:1008D0008093B00080917A00846080937A00809148
:1008E0007A00826080937A0080917A0081608093A0
:1008F0007A0080917A00806880937A001092C1001B
:10090000E0913001F091310182E08083E0912C018F
:10091000F0912D011082E0912E01F0912F018FECCA
:10092000808310923801E0913401F091350186E026
:100930008083E0913201F091330180818061808376
:10094000E0913201F0913301808188608083E091F1
:100950003201F0913301808180688083E09132011F
:10096000F091330180818F7D808362E088E00E9476
:10097000E501C0E0D0E011E08FEB91E00E94C602FB
:100980004597F0F480911F0181111AC041E050E0B9
:1009900062E171E080E291E00E948C008FEB91E0D7
:1009A0000E94C602BC0190E080E04AE00E9478020A
:1009B00010931F0168EC70E080E090E00E94460216
:1009C00080911F018823D1F041E050E064E171E0A3
:1009D00080E291E00E948C008DEB91E00E94C602C3
:1009E000BC0190E080E04AE00E94780268E873E190
:1009F00080E090E00E94460210921F01209709F4C7
:100A0000BBCF0E94F600882309F4B6CF0E940000F5
:100A1000B3CFA1E21A2EAA1BBB1BFD010DC0AA1F5A
:100A2000BB1FEE1FFF1FA217B307E407F50720F057
:100A3000A21BB30BE40BF50B661F771F881F991FD2
:100A40001A9469F760957095809590959B01AC011B
:100A5000BD01CF010895EE0FFF1F0590F491E02D29
:060A60000994F894FFCF99
:100A6600000000002C018C00B9007901EA00C800E2
:060A7600DC00410042001B
:00000001FF
