:100000000C9462000C948A000C948A000C948A0070
:100010000C948A000C948A000C948A000C948A0038
:100020000C948A000C948A000C948A000C948A0028
:100030000C948A000C948A000C948A000C948A0018
:100040000C948C030C948A000C945A030C94340383
:100050000C948A000C948A000C948A000C948A00F8
:100060000C948A000C948A000000000024002700F1
:100070002A0000000000250028002B0000000000DE
:1000800023002600290004040404040404040202DA
:100090000202020203030303030301020408102007
:1000A0004080010204081020010204081020000012
:1000B0000008000201000003040700000000000027
:1000C0000000D00411241FBECFEFD8E0DEBFCDBFAB
:1000D00011E0A0E0B1E0EEE4FAE002C005900D927C
:1000E000A631B107D9F721E0A6E1B1E001C01D9228
:1000F000A43CB207E1F710E0C2E6D0E004C02197CB
:10010000FE010E941F05C136D107C9F70E94D60320
:100110000C9425050C940000AF92BF92CF92DF9211
:10012000EF92FF920F931F93CF93DF936C017B01AC
:100130008B01040F151FEB015E01AE18BF08C0173D
:10014000D10759F06991D601ED91FC910190F081B0
:10015000E02DC6010995892B79F7C501DF91CF9173
:100160001F910F91FF90EF90DF90CF90BF90AF90D5
:100170000895FC01538D448D252F30E0842F90E0AD
:10018000821B930B541710F0CF9608950197089592
:10019000FC01918D828D981761F0A28DAE0FBF2F5B
:1001A000B11D5D968C91928D9F5F9F73928F90E0B1
:1001B00008958FEF9FEF0895FC01918D828D981720
:1001C00031F0828DE80FF11D858D90E008958FEF5D
:1001D0009FEF0895FC01918D228D892F90E0805C26
:1001E0009F4F821B91098F739927089587E291E0B1
:1001F0000E94EA0021E0892B09F420E0822F089573
:1002000080E090E0892B29F00E94F60081110C9487
:1002100000000895FC01A48DA80FB92FB11DA35AA9
:10022000BF4F2C91848D90E001968F739927848F16
:10023000A689B7892C93A089B1898C918370806439
:100240008C93938D848D981306C00288F389E02DDA
:1002500080818F7D80830895EF92FF920F931F938B
:10026000CF93DF93EC0181E0888F9B8D8C8D981369
:100270001AC0E889F989808185FF15C09FB7F89475
:10028000EE89FF896083E889F989808183708064C1
:1002900080839FBF81E090E0DF91CF911F910F910C
:1002A000FF90EF900895F62E0B8D10E00F5F1F4F1B
:1002B0000F731127E02E8C8D8E110CC00FB607FC2A
:1002C000FACFE889F989808185FFF5CFCE010E94B8
:1002D0000A01F1CFEB8DEC0FFD2FF11DE35AFF4F1B
:1002E000F0829FB7F8940B8FEA89FB898081806246
:1002F000CFCFCF93DF93EC01888D8823B9F0AA8903
:10030000BB89E889F9898C9185FD03C0808186FDD0
:100310000DC00FB607FCF7CF8C9185FFF2CF80811F
:1003200085FFEDCFCE010E940A01E9CFDF91CF9189
:100330000895833081F028F4813099F08230A9F05B
:1003400008958730A9F08830C9F08430B1F48091E5
:1003500080008F7D03C0809180008F778093800024
:10036000089584B58F7784BD089584B58F7DFBCFC4
:100370008091B0008F778093B00008958091B00095
:100380008F7DF9CFCF93DF93282F30E0F901E2552D
:10039000FF4F8491F901E656FF4FD491F901EA57D6
:1003A000FF4FC491CC23A1F081110E949901EC2F41
:1003B000F0E0EE0FFF1FE458FF4FA591B491EC91D0
:1003C000ED2381E090E009F480E0DF91CF91089582
:1003D00080E090E0FACF1F93CF93DF93282F30E097
:1003E000F901E255FF4F8491F901E656FF4FD49190
:1003F000F901EA57FF4FC491CC23A9F0162F8111C0
:100400000E949901EC2FF0E0EE0FFF1FEE58FF4F16
:10041000A591B4918FB7F894EC91111108C0D095C3
:10042000DE23DC938FBFDF91CF911F910895DE2BE8
:10043000F8CFCF93DF9390E0FC01E656FF4F249175
:100440008A579F4FFC0184918823C9F090E0880F60
:10045000991FFC01E859FF4FA591B491FC01EE589A
:10046000FF4FC591D49161110DC09FB7F8948C9145
:10047000209582238C938881282328839FBFDF9136
:10048000CF910895623051F49FB7F8943C91822F38
:10049000809583238C93E8812E2BEFCF8FB7F89430
:1004A000EC912E2B2C938FBFEACF8E3008F08E501C
:1004B0008770806480937C0080917A008064809350
:1004C0007A0080917A0086FDFCCF8091780090912F
:1004D000790008953FB7F89480911B0190911C0119
:1004E000A0911D01B0911E0126B5A89B05C02F3F0C
:1004F00019F00196A11DB11D3FBFBA2FA92F982F4A
:100500008827BC01CD01620F711D811D911D42E044
:10051000660F771F881F991F4A95D1F708958F920C
:100520009F92AF92BF92CF92DF92EF92FF920E9482
:100530006A024B015C0184EFC82EDD24D394E12CC8
:10054000F12C0E946A02681979098A099B09683EA0
:10055000734081059105A8F321E0C21AD108E10892
:10056000F10888EE880E83E0981EA11CB11CC1140E
:10057000D104E104F10429F7FF90EF90DF90CF90D0
:10058000BF90AF909F908F9008958F929F92AF925F
:10059000BF920F931F93CF93DF93CDB7DEB7A19791
:1005A0000FB6F894DEBF0FBECDBF19A2423008F4DB
:1005B0004AE08E010F5D1F4F842E912CB12CA12C8F
:1005C000A50194010E94FD04E62FB901CA01EA3099
:1005D00044F5E05DD801EE938D01232B242B252BD0
:1005E00079F790E080E0109769F0FD01019000201C
:1005F000E9F73197AF014A1B5B0BBD0187E291E040
:100600000E948C00A1960FB6F894DEBF0FBECDBF3E
:10061000DF91CF911F910F91BF90AF909F908F90DE
:100620000895E95CD7CFCF92DF92EF92FF92CF93FC
:10063000DF936B017C016DE287E291E00E942C0167
:10064000EC0166277727CB016C197D098E099F097C
:100650004AE00E94C5028C0F9D1FDF91CF91FF9051
:10066000EF90DF90CF9008951F920F920FB60F92E8
:1006700011242F933F934F935F936F937F938F93A7
:100680009F93AF93BF93EF93FF9387E291E00E9414
:100690000A01FF91EF91BF91AF919F918F917F914F
:1006A0006F915F914F913F912F910F900FBE0F90DF
:1006B0001F9018951F920F920FB60F9211242F932F
:1006C0008F939F93EF93FF93E0913701F09138015F
:1006D0008081E0913D01F0913E0182FD1BC090813F
:1006E000809140018F5F8F7320914101821741F00B
:1006F000E0914001F0E0E95DFE4F958F809340016D
:10070000FF91EF919F918F912F910F900FBE0F90BE
:100710001F9018958081F4CF1F920F920FB60F9201
:1007200011242F933F938F939F93AF93BF93809107
:10073000170190911801A0911901B0911A013091FF
:10074000160123E0230F2D3758F50196A11DB11D89
:10075000209316018093170190931801A09319011B
:10076000B0931A0180911B0190911C01A0911D0171
:10077000B0911E010196A11DB11D80931B019093A4
:100780001C01A0931D01B0931E01BF91AF919F91D9
:100790008F913F912F910F900FBE0F901F90189542
:1007A00026E8230F0296A11DB11DD2CF789484B5FF
:1007B000826084BD84B5816084BD85B5826085BD5D
:1007C00085B5816085BD80916E00816080936E00EB
:1007D00010928100809181008260809381008091DD
:1007E000810081608093810080918000816080938E
:1007F00080008091B10084608093B1008091B0004E
:1008000081608093B00080917A00846080937A0048
:1008100080917A00826080937A0080917A00816072
:1008200080937A0080917A00806880937A00109299
:10083000C10061E08DE00E94190262E082E00E9446
:10084000190262E083E00E94190260E08EE00E94DB
:10085000190260E08FE00E941902E0913701F091E7
:10086000380182E08083E0913301F09134011082FD
:10087000E0913501F09136018FEC808310923F01B9
:10088000E0913B01F0913C0186E08083E0913901E9
:10089000F0913A01808180618083E0913901F0918B
:1008A0003A01808188608083E0913901F0913A01BA
:1008B000808180688083E0913901F0913A018081E4
:1008C0008F7D8083C0E0D0E082E00E94C2018C0175
:1008D000909326018093250183E00E94C2019093AA
:1008E0002401809323018EE00E94550290932201FF
:1008F000809321018FE00E94550290932001809304
:100900001F01012BD1F461E08DE00E94EB0141E079
:1009100050E062E171E087E291E00E948C0060911A
:10092000210170912201072E000C880B990B97FF73
:100930002FC00E9413030E948F0280912301909187
:100940002401892BD1F460E08DE00E94EB0141E0AD
:1009500050E064E171E087E291E00E948C006091D8
:100960001F0170912001072E000C880B990B97FF37
:1009700013C00E9413030E948F02209709F4A4CF92
:100980000E94F600882309F49FCF0E9400009CCFAC
:100990004AE00E94C502CFCF4AE00E94C502EBCFD9
:1009A000E7E2F1E01382128288EE93E0A0E0B0E08B
:1009B00084839583A683B78384E091E091838083C9
:1009C00085EC90E09587848784EC90E09787868714
:1009D00080EC90E0918B808B81EC90E0938B828B0C
:1009E00082EC90E0958B848B86EC90E0978B868BE5
:1009F000118E128E138E148E0895A1E21A2EAA1B48
:100A0000BB1BFD010DC0AA1FBB1FEE1FFF1FA217BE
:100A1000B307E407F50720F0A21BB30BE40BF50BBB
:100A2000661F771F881F991F1A9469F76095709544
:100A3000809590959B01AC01BD01CF010895EE0F0B
:0E0A4000FF1F0590F491E02D0994F894FFCF6C
:100A4E00000000002C018C00B9007901EA00C800FA
:060A5E00DC004100420033
:00000001FF
